:100000000C943E000C945B000C945B000C945B0021
:100010000C945B000C945B000C945B000C946F01DF
:100020000C945B000C945B000C945B000C945B00E4
:100030000C94FF000C945B000C945B000C941F016B
:100040000C945B000C945B000C945B000C945B00C4
:100050000C94FA010C945B000C945B000C945B0014
:100060000C9485000C945B000C945B000C945B007A
:100070000C9422020C945B000C945B0011241FBEB4
:10008000CFEFD0E1DEBFCDBF11E0A0E0B1E0E0EC0A
:10009000F9E002C005900D92A631B107D9F721E031
:1000A000A6E1B1E001C01D92A43BB207E1F70E94B6
:1000B0004A020C94DE040C94000080EC80937C00D7
:1000C0008FE880937A008FEF80937E00089580916F
:1000D0002701813069F081E0809327011092160199
:1000E00080EC80937C0080917A00806480937A0019
:1000F000089580912701823029F41092270187E129
:1001000091E0089580E090E008951F920F920FB65D
:100110000F9211242F933F938F93EF93FF93E091CE
:10012000160181E08E0F80931601209178003091A6
:100130007900F0E0EE0FFF1FE95EFE4F3183208370
:10014000883091F0806C80937C0080917A0080648C
:1001500080937A00FF91EF918F913F912F910F90B3
:100160000FBE0F901F90189582E080932701F2CF69
:100170001092800080E480938100109228010895FD
:10018000109228011092B3011092B20110928500D2
:100190001092840081E48093810081E280936F005B
:1001A00008950F931F9380912801813031F060E012
:1001B00070E0CB011F910F9108958091B201909151
:1001C000B3016091B2017091B301CB01A0E0B0E046
:1001D000BC01552744278091B0019091B101A0E066
:1001E000B0E022E0209328018A019B01082B192B03
:1001F0002A2B3B2BC901B8011F910F9108951F9223
:100200000F920FB60F9211248F939F938091280124
:1002100081110EC080918600909187009093B1016A
:100220008093B00181E08093280180E48093810075
:100230009F918F910F900FBE0F901F9018951F9256
:100240000F920FB60F9211242F938F939F9380914B
:10025000B2019091B3018F3F2FEF920789F0809107
:10026000B2019091B30101969093B3018093B201D2
:100270009F918F912F910F900FBE0F901F90189507
:1002800020E42093810090938500809384009F91C7
:100290008F912F910F900FBE0F901F9018950E9475
:1002A00094010E9459010E945D000E947E010C94FD
:1002B000B8005498E3E7F0E0808180618083E8E64D
:1002C000F0E0808188608083089589B18295817093
:1002D00008958091290108951092290108951F928F
:1002E0000F920FB60F9211248F9381E08093290112
:1002F0008F910F900FBE0F901F9018952C9A84B17C
:100300008F70806B84B98CE58CBD08958EBD0DB463
:1003100007FEFDCF0895882329F0813011F42C9831
:10032000089508952C9A08958DE691E00E944B045B
:100330008AE291E00E944B041092C5009CE09093E9
:10034000C400E1ECF0E08081886980831092CD00E8
:100350009093CC00E9ECF0E0808188698083089577
:100360009091C00095FFFCCF8093C60008958DE664
:1003700091E00E94C00408958DE691E00E948304FC
:100380000895682F70E08DE691E00E94A204089520
:10039000CF938DE691E00E94D404C82F8DE691E0C2
:1003A0000E94D9048C2FCF9108959091C80095FF99
:1003B000FCCF8093CE0008958AE291E00E94C004B1
:1003C00008958AE291E00E9483040895682F70E006
:1003D0008AE291E00E94A2040895CF938AE291E01C
:1003E0000E94D404C82F8AE291E00E94D9048C2F85
:1003F000CF9108951F920F920FB60F9211242F9351
:100400003F934F935F936F937F938F939F93AF939C
:10041000BF93EF93FF936091C6008DE691E00E9439
:100420005204FF91EF91BF91AF919F918F917F9176
:100430006F915F914F913F912F910F900FBE0F9051
:100440001F9018951F920F920FB60F9211242F93A1
:100450003F934F935F936F937F938F939F93AF934C
:10046000BF93EF93FF936091CE008AE291E00E94E8
:100470005204FF91EF91BF91AF919F918F917F9126
:100480006F915F914F913F912F910F900FBE0F9001
:100490001F9018950E9440040E944F01789484B7E1
:1004A000811114BE0E94D4020E947F020E945D024C
:1004B0000E94C802F7CF0C9467000E947900009751
:1004C00011F00C94BA0308951F93CF93DF931F92FA
:1004D000CDB7DEB7182F81E069830E948B01812F91
:1004E0000E9486016981862F0E94860180E00E9419
:1004F0008B010F90DF91CF911F910C94D202E0916C
:100500000101F0910201099581111DC0E0910901DD
:10051000F0910A010995811111C00E9469018111B0
:1005200001C008950E946C010E9465019091000134
:100530009817B9F3809300010C94A5038370886029
:100540000E94C602EACF682F81E091E00E94670313
:10055000DDCFEF92FF920F931F93CF93662381F02D
:100560007C01C62F0091070110910801D701129656
:10057000ED91FC9113970995F8010995C15091F7F8
:10058000CF911F910F91FF90EF9008950C949003DD
:100590000E94D100611571058105910509F4089546
:1005A0000C94FA030C94C000CF93DF93E0910B01FD
:1005B000F0910C010995811119C0E0911301F0919E
:1005C0001401099581117DC0DF91CF910895E091CB
:1005D0000D01F0910E010995C82FE0910D01F091E8
:1005E0000E010995682F8C2F0E946402E0910B0187
:1005F000F0910C0109958230E0F5CFEFE0910B010D
:10060000F0910C0109958C17C0F2E0911101F09165
:1006100012018FEF0995E0911101F091120180E034
:100620000995E0910D01F0910E010995C82FE09117
:100630000D01F0910E010995D82FC13041F2D8F18A
:10064000C230B1F1C330F1F0882349F0C0E0E0914D
:100650000D01F0910E010995CF5FCD13F8CF83E026
:100660000E94C602E0910B01F0910C0109958230C5
:1006700020F2E0910F01F091100181E00995C2E0B4
:10068000C80FBCCF0E946501C82FE0911101F09105
:10069000120181E80995E0911101F091120181E0C8
:1006A0000995E0911101F09112018C2F09959ECFCF
:1006B0000E945B029BCF682F8BE091E00E94A90211
:1006C00095CF83708460DF91CF910C94C602EF9236
:1006D000FF920F931F93CF937C01C62FE0911101DE
:1006E000F091120180E80995E0911101F091120159
:1006F0008C2F0995CC2371F00091110110911201FA
:10070000D7011296ED91FC9113970995F80109957F
:10071000C15091F7CF911F910F91FF90EF900895E5
:100720001F93CF93DF93182FCBE0D1E0EE81FF81B1
:100730008EEF0995EE81FF8181E00995EE81FF81C1
:10074000812FDF91CF911F9109941F93CF93DF9356
:10075000182FCBE0D1E0EE81FF8181E80995EE8191
:10076000FF8181E00995EE81FF81812FDF91CF919B
:100770001F910994CF92DF92EF92FF920F931F93F4
:10078000CF93DF931F92CDB7DEB7182FE091110101
:10079000F091120182E899830995E0911101F0919D
:1007A000120180E10995C12E9981D92E760180E14F
:1007B000E80EF11C8601E0911101F0911201D601C1
:1007C0008C910995B2E0CB0ED11CE0911101F09112
:1007D0001201D80111968C910995CE14DF0451F7BE
:1007E0000F90DF91CF911F910F91FF90EF90DF90CD
:1007F000CF900895EF92FF921F93CF93DF9300D095
:100800001F92CDB7DEB7182F8BE0E82E81E0F82ECF
:10081000D7011696ED91FC91179783E869837A8347
:100820009B830995D7011696ED91FC91179784E06B
:100830000995D7011696ED91FC9117976981862F3E
:100840000995D7011696ED91FC9117977A81872F1C
:100850000995D7011696ED91FC911797812F09956F
:10086000D7011696ED91FC9117979B81892F0F90D8
:100870000F900F90DF91CF911F91FF90EF9009940F
:10088000F89484B7877F84BFE0E6F0E080818861D8
:10089000808310820895FC01E05CFF4F1082319646
:1008A00010820895FC01EF5BFF4F5081DC01A05CDA
:1008B000BF4F4C91541790F420E430E0241B3109D1
:1008C000250F311D2F33310584F0FC01EE5BFF4F06
:1008D00080818160808380E090E00895252F30E062
:1008E000241B31092F33310584F7208130E0DC01EE
:1008F000A20FB31F6C932F5F3F4F2F7333272083BB
:1009000081E090E00895FC01E05CFF4F2081DC0174
:10091000AF5BBF4F3C91321761F030E0DC01A20FBA
:10092000B31F8C912F5F3F4F2F733327208390E0AD
:100930000895FC01EE5BFF4F8081826080838FEF22
:100940009FEF0895FC01E05CFF4F2081AB01420F57
:10095000511DBA016F73707877FD06C0FC01E60F78
:10096000F71F808190E0089561507109606C7F6F7E
:100970006F5F7F4FFC01E60FF71F808190E00895C5
:10098000FC01EF5BFF4F308131972081321728F057
:10099000832F90E0821B9109089580E490E0821BF0
:1009A0009109830F911D0895FC01EE5BFF4F80813B
:1009B0000895FC01EE5BFF4F10820895F894FFCF7D
:1009C000FFDC01E101E601D501ED01B701BC01C188
:0609D00001B001C80100A6
:00000001FF
