:100000000C943E000C945B000C945B000C945B0021
:100010000C945B000C945B000C945B000C947B01D3
:100020000C945B000C945B000C945B000C945B00E4
:100030000C940A010C945B000C945B000C942B0153
:100040000C945B000C945B000C945B000C945B00C4
:100050000C9406020C945B000C945B000C945B0007
:100060000C9485000C945B000C945B000C945B007A
:100070000C942E020C945B000C945B0011241FBEA8
:10008000CFEFD0E1DEBFCDBF11E0A0E0B1E0EEEDFB
:10009000F9E002C005900D92A631B107D9F721E031
:1000A000A6E1B1E001C01D92A43BB207E1F70E94B6
:1000B00056020C94ED040C94000080EC80937C00BC
:1000C0008FE880937A008FEF80937E00089580916F
:1000D0002701813069F081E0809327011092160199
:1000E00080EC80937C0080917A00806480937A0019
:1000F000089580912701823029F41092270187E129
:1001000091E0089580E090E008951F920F920FB65D
:100110000F9211242F933F938F93EF93FF93E091CE
:10012000160181E08E0F80931601209178003091A6
:100130007900F0E0EE0FFF1FE95EFE4F3183208370
:10014000883091F0806C80937C0080917A0080648C
:1001500080937A00FF91EF918F913F912F910F90B3
:100160000FBE0F901F90189582E080932701F2CF69
:100170001092800080E4809381001092AF01109271
:10018000B3011092B201579A5F9808951092AF018F
:100190001092B3011092B201109285001092840067
:1001A00081E280936F005F98089581E480938100DD
:1001B00008959091AF0181E0913009F080E00895B9
:1001C0000F931F938091AF01813031F060E070E0B8
:1001D000CB011F910F9108956091B2017091B3010D
:1001E000CB01A0E0B0E0BC01552744278091B001CD
:1001F0009091B101A0E0B0E022E02093AF018A012C
:100200009B01082B192B2A2B3B2BC901B8011F91ED
:100210000F9108951F920F920FB60F9211248F9392
:100220009F938091AF0181110FC0809186009091C2
:1002300087009093B1018093B00181E08093AF017A
:1002400080E4809381005F9A9F918F910F900FBE01
:100250000F901F9018951F920F920FB60F921124B6
:100260002F938F939F938091B2019091B3018F3F11
:100270002FEF920789F08091B2019091B30101961E
:100280009093B3018093B2019F918F912F910F9022
:100290000FBE0F901F90189520E42093810090933B
:1002A0008500809384009F918F912F910F900FBEB6
:1002B0000F901F9018950E94A0010E9465010E9456
:1002C0005D000E948A010C94B8005498E3E7F0E0C6
:1002D000808180618083E8E6F0E0808188608083AF
:1002E000089589B1829581700895809128010895BB
:1002F0001092280108951F920F920FB60F921124A9
:100300008F9381E0809328018F910F900FBE0F9003
:100310001F9018952C9A84B18F70806B84B98CE5EE
:100320008CBD08958EBD0DB407FEFDCF08958823C2
:1003300029F0813011F42C98089508952C9A08958D
:100340008CE691E00E945A0489E291E00E945A04EE
:100350001092C5009CE09093C400E1ECF0E0808135
:10036000886980831092CD009093CC00E9ECF0E096
:1003700080818869808308959091C00095FFFCCFAB
:100380008093C60008958CE691E00E94CF04089502
:100390008CE691E00E9492040895682F70E08CE64C
:1003A00091E00E94B1040895CF938CE691E00E9401
:1003B000E304C82F8CE691E00E94E8048C2FCF91D3
:1003C00008959091C80095FFFCCF8093CE000895CA
:1003D00089E291E00E94CF04089589E291E00E94B1
:1003E00092040895682F70E089E291E00E94B104C0
:1003F0000895CF9389E291E00E94E304C82F89E237
:1004000091E00E94E8048C2FCF9108951F920F92E3
:100410000FB60F9211242F933F934F935F936F93D7
:100420007F938F939F93AF93BF93EF93FF936091CD
:10043000C6008CE691E00E946104FF91EF91BF91AC
:10044000AF919F918F917F916F915F914F913F916C
:100450002F910F900FBE0F901F9018951F920F9223
:100460000FB60F9211242F933F934F935F936F9387
:100470007F938F939F93AF93BF93EF93FF9360917D
:10048000CE0089E291E00E946104FF91EF91BF915B
:10049000AF919F918F917F916F915F914F913F911C
:1004A0002F910F900FBE0F901F9018950E944F0430
:1004B0000E945B01789484B7811114BE0E94E3020C
:1004C0000E948D020E9469020E94D802F7CF0C940C
:1004D00067000E947900009711F00C94C9030895F9
:1004E0001F93CF93DF931F92CDB7DEB7182F698389
:1004F0000E94E10281E00E949701812F0E949201F7
:100500006981862F0E94920180E00E9497010F90DE
:10051000DF91CF911F910C94D602E0910101F091EF
:100520000201099581111DC0E0910901F0910A01B4
:100530000995811111C00E947501811101C00895B2
:100540000E9478010E947101909100019817B9F3FF
:10055000809300010C94B403837088600E94D402DD
:10056000EACF682F81E091E00E947603DDCFEF9221
:10057000FF920F931F93CF93662381F07C01C62FC8
:100580000091070110910801D7011296ED91FC919D
:1005900013970995F8010995C15091F7CF911F91D3
:1005A0000F91FF90EF9008950C949F030C94D50049
:1005B0000E94D900811101C008950E94E0000C94AE
:1005C00009040C94C600CF93DF93E0910B01F091E6
:1005D0000C010995811119C0E0911301F0911401EA
:1005E000099581117DC0DF91CF910895E0910D01B2
:1005F000F0910E010995C82FE0910D01F0910E01C7
:100600000995682F8C2F0E947002E0910B01F091E8
:100610000C0109958230E0F5CFEFE0910B01F091EC
:100620000C0109958C17C0F2E0911101F0911201B3
:100630008FEF0995E0911101F091120180E0099589
:10064000E0910D01F0910E010995C82FE0910D0187
:10065000F0910E010995D82FC13041F2D8F1C23086
:10066000B1F1C330F1F0882349F0C0E0E0910D0111
:10067000F0910E010995CF5FCD13F8CF83E00E9472
:10068000D402E0910B01F0910C010995823020F227
:10069000E0910F01F091100181E00995C2E0C80FCF
:1006A000BCCF0E947101C82FE0911101F09112019D
:1006B00081E80995E0911101F091120181E009951D
:1006C000E0911101F09112018C2F09959ECF0E94AB
:1006D00067029BCF682F8BE091E00E94B70295CF15
:1006E00083708460DF91CF910C94D402EF92FF92DB
:1006F0000F931F93CF937C01C62FE0911101F091CE
:10070000120180E80995E0911101F09112018C2FFE
:100710000995CC2371F00091110110911201D701BC
:100720001296ED91FC9113970995F8010995C15026
:1007300091F7CF911F910F91FF90EF9008951F9324
:10074000CF93DF93182FCBE0D1E0EE81FF818EEFC6
:100750000995EE81FF8181E00995EE81FF81812F6E
:10076000DF91CF911F9109941F93CF93DF93182F9F
:10077000CBE0D1E0EE81FF8181E80995EE81FF8138
:1007800081E00995EE81FF81812FDF91CF911F914B
:100790000994CF92DF92EF92FF920F931F93CF9322
:1007A000DF931F92CDB7DEB7182FE0911101F091C2
:1007B000120182E899830995E0911101F0911201EB
:1007C00080E10995C12E9981D92E760180E1E80E4C
:1007D000F11C8601E0911101F0911201D6018C917A
:1007E0000995B2E0CB0ED11CE0911101F0911201FC
:1007F000D80111968C910995CE14DF0451F70F9012
:10080000DF91CF911F910F91FF90EF90DF90CF90EC
:100810000895EF92FF921F93CF93DF9300D01F9222
:10082000CDB7DEB7182F8BE0E82E81E0F82ED70188
:100830001696ED91FC91179783E869837A839B83E1
:100840000995D7011696ED91FC91179784E00995CB
:10085000D7011696ED91FC9117976981862F09951E
:10086000D7011696ED91FC9117977A81872F0995FC
:10087000D7011696ED91FC911797812F0995D70115
:100880001696ED91FC9117979B81892F0F900F90F1
:100890000F90DF91CF911F91FF90EF900994F89402
:1008A00084B7877F84BFE0E6F0E080818861808341
:1008B00010820895FC01E05CFF4F10823196108297
:1008C0000895FC01EF5BFF4F5081DC01A05CBF4F3E
:1008D0004C91541790F420E430E0241B3109250F8B
:1008E000311D2F33310584F0FC01EE5BFF4F808119
:1008F0008160808380E090E00895252F30E0241B04
:1009000031092F33310584F7208130E0DC01A20F5B
:10091000B31F6C932F5F3F4F2F733327208381E0EA
:1009200090E00895FC01E05CFF4F2081DC01AF5BAB
:10093000BF4F3C91321761F030E0DC01A20FB31FD2
:100940008C912F5F3F4F2F733327208390E00895C2
:10095000FC01EE5BFF4F8081826080838FEF9FEF11
:100960000895FC01E05CFF4F2081AB01420F511D57
:10097000BA016F73707877FD06C0FC01E60FF71FB0
:10098000808190E0089561507109606C7F6F6F5FA6
:100990007F4FFC01E60FF71F808190E00895FC0176
:1009A000EF5BFF4F308131972081321728F0832F82
:1009B00090E0821B9109089580E490E0821B9109E8
:1009C000830F911D0895FC01EE5BFF4F8081089518
:0E09D000FC01EE5BFF4F10820895F894FFCFFC
:1009DE00FFE801ED01F201E101F901C301C801CD0A
:0609EE0001BC01D4010070
:00000001FF
